:100000000C9472000C9493000C9493000C94930045
:100010000C9493000C9493000C9493000C94930014
:100020000C9493000C9493000C9493000C94930004
:100030000C9493000C9493000C9493000C949300F4
:100040000C9493000C944B070C9493000C94930025
:100050000C9493000C9493000C9493000C949300D4
:100060000C9493000C9493000C9493000C949300C4
:100070000C9493000C9493000C9493000C949300B4
:100080000C9493000C9493000C9493000C948A07A6
:100090000C9493000C9493000C9493000C94930094
:1000A0000C9493000C9493000C9493000C94930084
:1000B0000C9493000C9493000C9493000C94930074
:1000C0000C9493000C9493000C9493000C94930064
:1000D0000C9493000C9493000C9493000C94930054
:1000E0000C94930011241FBECFEFD1E2DEBFCDBF31
:1000F00000E00CBF15E0A0E0B2E0EEE9FFE100E0B7
:100100000BBF02C007900D92A438B107D9F711E2D6
:10011000A4E8B5E001C01D92AA31B107E1F70E9441
:1001200095000C94CD0F0C9441078F92AF92BF9223
:10013000CF92DF92EF92FF920F931F93789480E11A
:1001400090E00E94E5070E94B30783EC95E09EBF14
:100150008DBFCF9740E850E060E070E020E00E9463
:10016000CA098823D9F40E94340784E096E060E14C
:100170004CE151E000E010E020E030E0E5E1EE2E5F
:10018000E6E0FE2E7CECA72EB12CC12CD12C8824CD
:100190000E945E09882311F40E94D80868EC70E080
:1001A00080E090E00E94220CF9CF1F93CF93DF9361
:1001B000182FEB0181EE96E040E050E060E070E047
:1001C0000E94B70A882381F41A3021F48DE0BE0121
:1001D0000E94D5008091300185FFFCCF109336013D
:1001E00081EE96E00E943C0A80E090E0DF91CF91A2
:1001F0001F9108959B01AC0184E0220F331F441F1F
:10020000551F8A95D1F760E074E284EF90E00E9478
:100210000D0F21502093340188E18093310181EE4C
:1002200096E00E945B0B882319F420E030E002C0C6
:100230002FEF3FEFC90108958F92AF92BF92CF92F7
:10024000DF92EF92FF920F931F938EED90E20E9448
:100250005B0B182F83EE90E20E945B0B80E092E034
:100260009093172180931621112309F05AC089EE2B
:1002700096E062E148E951E000E010E020E030E083
:100280007EE3E72E77E0F72EBCECAB2EB12CC12C31
:10029000D12C88240E945E09882309F042C08AEF8D
:1002A00096E061E14EE354E000E010E020E030E051
:1002B000AAE0EA2EA8E0FA2E0E945E09882389F5BA
:1002C0008CE197E060E144EC54E001E010E020E0D4
:1002D00030E0F2EAEF2EF9E0FF2E0E945E0988235B
:1002E00001F58BE097E063E14BE052E000E010E0C5
:1002F00020E030E0E6EDEE2EE8E0FE2E0E945E0902
:10030000882379F48DE297E06AEF4DE255E000E052
:1003100010E020E030E07EE6E72E7AE0F72E0E9443
:100320005E0968EC70E080E090E00E94220CF9CF5A
:10033000CF93DF930E9460020E94250480E06AE070
:100340000E940F04CEE0D2E002C00E94ED0389912A
:100350008823D9F78EED90E240E050E060E070E055
:100360000E94B70A882309F04BC083EE90E240E078
:1003700050E060E070E00E94B70A8823E9F582E06F
:100380006EE10E940F048091E6066AE00E94EE0E84
:10039000805D0E94ED038091E6066AE00E94EE0E09
:1003A000892F805D0E94ED038AE30E94ED03809116
:1003B000E7066AE00E94EE0E805D0E94ED038091E8
:1003C000E7066AE00E94EE0E892F805D0E94ED0331
:1003D0008AE30E94ED038091E8066AE00E94EE0E37
:1003E000805D0E94ED038091E8066AE00E94EE0EB7
:1003F000892F805D0E94ED0383EE90E20E943C0A0B
:100400008EED90E20E943C0A6AE070E080E090E0AD
:100410000E94220C9FCF0F931F93CF93DF9300E096
:1004200010E0C8E2D0E083EE90E240E050E060E00F
:1004300070E00E94B70A8823D9F484E0602F0E94FC
:100440000F0480E00E94890284E06C2F0E940F0458
:100450008FEF0E9489020F5F1F4F0038110514F0C3
:1004600000E010E02196C038D10514F0C0E0D0E0E3
:1004700083EE90E20E943C0A65E070E080E090E04C
:100480000E94220CD0CF892B19F082B1806202C069
:1004900082B18F7D82B908959FEF97B91298139812
:1004A0001098149A95E0292F2A95F1F788B99A9512
:1004B000F1F7149818B8109A139A129A17B8089569
:1004C0008FEF81B91598179A109A169A1498119867
:1004D0008AE0982F9A95F1F7119A8A95F1F780EAB8
:1004E0000E944C0282EA0E944C0288EC0E944C025C
:1004F00087E20E944C0281E80E944C0280E00E9448
:100500004C028FE20E944C028FEA0E944C02159A24
:1005100008959FEF97B9129A13981098149A95E03E
:10052000292F2A95F1F788B99A95F1F7149818B8F8
:10053000109A139A129A17B8089517B8129A139A24
:100540001098149A1498109A139A129A08950E9467
:100550009D028FEF88B917B8129A139A1098149ABF
:10056000149886B1109A139A129A18B8089580E0D8
:1005700008952F923F924F925F926F927F928F9247
:100580009F92AF92BF92CF92DF92EF92FF920F9322
:100590001F93DF93CF93CDB7DEB72E970FB6F894A6
:1005A000DEBF0FBECDBFFC016B872C87202F2770CD
:1005B0002887802F840F877058E0D52ED81A38E00E
:1005C000D31609F4DD24842F869586958695898334
:1005D000842F90E087709070892B19F499819E8305
:1005E00003C0A981AF5FAE83202F30E02770307049
:1005F0002115310551F0842F90E08770907082179B
:1006000093071CF4BE81BF5FBE83069506950695D1
:100610000A87202F2F70206B29879B85892F90E0D8
:100620009B838A83DF01A81BB90BBD83AC831F01A9
:10063000EE24FF24BC856B2E7724EE814E2E5524AC
:10064000089441085108A0C0F885FF2311F490E0F8
:100650002BC02F812223F1F48C2D8F700E944C022D
:100660008D859E85860D971D44E0959587954A95C5
:10067000E1F78F7080610E944C0289850E944C02D4
:100680000E94A70290E00D2C02C0880F991F0A94C7
:10069000E2F702C0D5018C9190E00D2C02C0959537
:1006A00087950A94E2F7982FBF81E981BE1711F46C
:1006B00080E007C0D4018C91088401C0880F0A949F
:1006C000EAF7182F192BDD2031F1E414F50419F5A0
:1006D0008C2D8F700E944C028D859E85860D971DF6
:1006E00034E0959587953A95E1F78F7080610E9487
:1006F0004C02802F0E944C020E94A70290E00884C6
:1007000002C0959587950A94E2F7088401C0880F86
:100710000A94EAF7182B8C2D8F700E944C028D855D
:100720009E85860D971D24E0959587952A95E1F77E
:100730008F7080610E944C02802F0E944C02812F9A
:100740000E948902ED85FE853196FE87ED87C39470
:100750000894811C911C0894A11CB11CFB852D855B
:100760002F1708F471CF0894E11CF11C8C819D8136
:10077000AA81BB818A0F9B1F9D838C832A0E3B1EFF
:10078000B8E0EB16F10481F0EF82FE81EF1660F421
:100790000E2D2A85020F0F70006BCC844101AC80B6
:1007A000BD801E861D86DACF2E960FB6F894DEBF6A
:1007B0000FBECDBFCF91DF911F910F91FF90EF90B2
:1007C000DF90CF90BF90AF909F908F907F906F9071
:1007D0005F904F903F902F9008950F931F93CF936A
:1007E000DF938032B8F08F37A8F4805290E073E046
:1007F000880F991F7A95E1F78C01035E1D4FEC017C
:10080000CB5DDD4FF80181918F010E9489020C17A9
:100810001D07C1F7DF91CF911F910F9108950F939D
:100820001F93082F162F862F8F700E944C0212954F
:100830001F70812F80610E944C020F70802F806B8F
:100840000E944C021F910F9108950F931F9380E413
:100850000E944C0200E00DC080E00E9489021F5FF0
:100860001038D1F7802F60E00E940F040F5F09302D
:1008700011F010E0F1CF1F910F9108958EED90E2ED
:1008800040E050E060E070E00E94B70A8823D9F4AD
:100890008091E8068F5F8093E8068C33A0F0109279
:1008A000E8068091E7068F5F8093E7068C3358F067
:1008B0001092E7068091E6068F5F8093E606883106
:1008C00010F01092E6068EED90E20E943C0A64E67B
:1008D00070E080E090E00E94220CD0CF8091E7068B
:1008E0008F5F8093E7068C3310F01092E70608952F
:1008F0008091E8068F5F8093E8068C3310F01092A9
:10090000E80608958091E6068F5F8093E6068831B9
:1009100010F01092E606089580FD0CC0613051F48D
:100920008091E6068F5F8093E6068831F0F01092A2
:10093000E606089581FD0CC0623051F48091E7060F
:100940008F5F8093E7068C3380F01092E70608955E
:1009500082FD0BC0643049F48091E8068F5F80937C
:10096000E8068C3310F01092E806089590E080FFBE
:1009700009C081FF07C096958795969587958095C4
:100980008170089581E00895EF92FF920F931F9375
:10099000E62E109207018FEF8093080180930A01E1
:1009A00010E007E5F0900601043489F0053418F4EE
:1009B0000334B9F51CC0023529F1073591F58F2DA7
:1009C0000E94B604813069F510E004E42AC01F5F7C
:1009D0008F2D0E94B604882309F407E5123009F52B
:1009E0008F2D6E2D0E948C0410E003E41AC01F5F4F
:1009F0008F2D0E94B604882399F0103591F410E0F1
:100A000002E50FC01F5F143131F48F2D6E2D0E944F
:100A10008C0410E006C08F2D0E94B604882309F4D0
:100A200007E561E070E080E090E00E94220CBACF20
:100A3000FC01EE0FFF1FE851FF4D11821082089557
:100A40002BE030E0829FF001839FF00D929FF00D2C
:100A50001124E05AF44F148208952F923F924F923E
:100A60005F926F927F928F929F92AF92BF92CF923E
:100A7000DF92EF92FF920F931F93CF93DF93AA24FD
:100A8000BB24CC24DD247BE0872E912C64E7262E2A
:100A900065E0362E53E4452E55E0552E43E2642E94
:100AA00045E0742E8501000F111F08511F4DD8011C
:100AB000CD91DC91209799F1BAE0AB16B10478F5AD
:100AC0008B819C81AA2797FDA095BA2FEDB7FEB721
:100AD00038970FB6F894FEBF0FBEEDBF4DB75EB7A7
:100AE0004F5F5F4F25E135E032832183880F991FE7
:100AF000AA1FBB1FFA0182839383A483B5838A81D3
:100B0000868317820E94A40DD8011D921C92EDB716
:100B1000FEB738960FB6F894FEBF0FBEEDBFC89C67
:100B2000E001C99CD00DD89CD00D1124C05AD44FDF
:100B30008C81843009F48BC0853050F4823009F404
:100B400043C0833008F056C0813009F04AC10AC062
:100B5000863009F4CBC0863008F4AAC0873009F08B
:100B600040C104C1ED81FE81E380F4800027F7FCE1
:100B70000095102FEF81F88523813481442737FDBC
:100B80004095542F8DB79EB70E970FB6F8949EBF21
:100B90000FBE8DBFEDB7FEB73196ADB7BEB712969B
:100BA0007C926E92119788819981AA81BB81828300
:100BB0009383A483B583EE0CFF1C001F111FE682F4
:100BC000F78200871187FBC0ED81FE81238134818C
:100BD000442737FD4095542F8DB79EB70A970FB61F
:100BE000F8949EBF0FBE8DBFEDB7FEB7319686E37A
:100BF00095E042C0ED81FE8123813481442737FD99
:100C00004095542FEDB7FEB73A970FB6F894FEBF54
:100C10000FBEEDBF3196ADB7BEB712965C924E9245
:100C2000119788819981AA81BB8182839383A48350
:100C3000B583220F331F441F551F268337834087F8
:100C400051870E94A40DEDB7FEB73A96C5C0ED815D
:100C5000FE8123813481442737FD4095542F8DB781
:100C60009EB70A970FB6F8949EBF0FBE8DBFEDB723
:100C7000FEB7319680E595E0ADB7BEB712969C936E
:100C80008E93119788819981AA81BB8182839383F6
:100C9000A483B583220F331F441F551F2683378338
:100CA000408751870E94A40DADB7BEB71A9658C0B1
:100CB00000D000D02DE535E0EDB7FEB732832183BB
:100CC0008D819E81AA2797FDA095BA2F8383948357
:100CD000A583B6830E94A40D2DB73EB72A5F3F4F70
:100CE0000FB6F8943EBF0FBE2DBF7BC0EF81F885D5
:100CF00023813481442737FD4095542F8DB79EB70B
:100D00000E970FB6F8949EBF0FBE8DBFEDB7FEB71E
:100D1000319684E695E0ADB7BEB712969C938E935C
:100D2000119788819981AA81BB8182839383A4834F
:100D3000B5838D819E81AA2797FDA095BA2F8683C2
:100D40009783A087B187220F331F441F551F228727
:100D50003387448755870E94A40DADB7BEB71E9652
:100D60000FB6F894BEBF0FBEADBF3BC0EF81F88594
:100D700023813481442737FD4095542FEDB7FEB7CA
:100D80003E970FB6F894FEBF0FBEEDBF3196ADB7DC
:100D9000BEB712963C922E92119788819981AA81B2
:100DA000BB8182839383A483B5838D819E81AA278F
:100DB00097FDA095BA2F86839783A087B187220FCE
:100DC000331F441F551F22873387448755870E944E
:100DD000A40DEDB7FEB73E960FB6F894FEBF0FBE5A
:100DE000EDBFC89CF001C99CF00DD89CF00D1124FA
:100DF000E05AF44F14820894A11CB11C0894C11C41
:100E0000D11CFAE0AF16B10411F4AA24BB2424EFDC
:100E1000C21621E0D20610F0CC24DD2461E070E09F
:100E200080E090E00E94220C3DCEDC01FB0188E7CF
:100E300097E08083929312921292129212921292DF
:100E40001292129212921292129212921292129282
:100E50001292129212921292129212921292129272
:100E60003197ED93FC93089581E792E09093890088
:100E70008093880082E080936F008CE080938100F3
:100E800008951F920F920FB60F9211240F900FBE6C
:100E90000F901F9018951F920F920FB60F920BB6DE
:100EA0000F9211242F933F934F935F936F937F93F0
:100EB0008F939F93AF93BF93EF93FF930E94F80795
:100EC0000E94CD0B81E00E945109FF91EF91BF91EB
:100ED000AF919F918F917F916F915F914F913F91D2
:100EE0002F910F900BBE0F900FBE0F901F90189573
:100EF0000E940208FC017894009759F02381348104
:100F00002115310531F06581768187819085F90160
:100F1000199508951F920F920FB60F9211248F9377
:100F20009F93AF93BF9380913A0B90913B0BA0910D
:100F30003C0BB0913D0B0196A11DB11D80933A0B66
:100F400090933B0BA0933C0BB0933D0B10929500FC
:100F500010929400BF91AF919F918F910F900FBE0F
:100F60000F901F90189581E080937100E1E9F0E007
:100F700082E080838081886080830895EF92FF9271
:100F80000F931F93E0909400F090950000E010E024
:100F900060913A0B70913B0B80913C0B90913D0B13
:100FA0002FEF3FEF40E050E00E94CF0EE60EF71E1D
:100FB000081F191F16950795F794E794B701C80104
:100FC0001F910F91FF90EF9008959093CD00809323
:100FD000CC0088E18093C90086E08093CA00089520
:100FE000982F8091C80085FFFCCF9093CE00089584
:100FF0008091430B9091440B01969093440B809306
:10100000430B08958091430B9091440B892B19F069
:1010100020E030E004C02091410B3091420BC90127
:101020000895FFCF0F931F93CF93DF938C01DB01C4
:101030000097A1F16115710589F1EC014881598191
:10104000EA01FA01309731F0928112968C91129751
:101050008917F0F4E417F50761F4E801B983A88370
:101060001A961C921E9219971C96FC93EE931B974E
:101070000AC01A96DC93CE9319971C96FC93EE93B4
:101080001B97BC87AB87309759F0B287A18708C000
:10109000EF01838594859C01F901D4CF89EC01C0CF
:1010A00080E0DF91CF911F910F910895CF93DF934F
:1010B000EC01009719F4E0E0F0E012C0E881F9815A
:1010C000309771F0A385B485B983A883109721F078
:1010D0001A961C921E9219971286118614861386F0
:1010E000CF01DF91CF910895CF93DF93AC01DB0166
:1010F0000097A9F1EC0188819981009781F1EC01B9
:10110000FC01EA17FB0719F51B96ED91FC911C9762
:10111000A817B90741F4EA01F983E883309769F029
:10112000128611860AC0FC87EB871B96ED91FC9115
:101130001C97309711F0D287C1871C961C921E9283
:101140001B971A961C921E921997BD010AC02385FF
:101150003485EF012115310511F0F901D2CF60E09E
:1011600070E0CB01DF91CF910895CF93DF93EC0135
:101170000097C1F0A881B9811097B1F012968C91B7
:101180001297681778F01B96ED91FC911C97F983E4
:10119000E883309749F0128611861C961C921E92A5
:1011A0001B9702C0A0E0B0E0CD01DF91CF91089580
:1011B00081E08093400B8EE39BE06FEF0E94B508C7
:1011C000009731F09093420B8093410B0E94B20E36
:1011D00008950F931F93CF93DF93EC018B01861734
:1011E0009707E1F07093420B6093410B8091DC20F4
:1011F0009091DD20892B19F4CE010E942B0DCE0198
:10120000B8010E94380D8A818A3F21F01093DD20B9
:101210000093DC20CE01B8010E94790E1D86DF917B
:10122000CF911F910F910895FF920F931F93CF932A
:10123000DF93982F8091400B882369F1FFB6F894D3
:10124000C091410BD091420B8D85813039F48EE3F2
:101250009BE00E945608BC01CE011AC06A81913001
:1012600049F06623B9F070E0615070408FEF6F3F36
:10127000780781F08EE39BE00E94B5088C0100970F
:1012800049F08EE39BE0BE010E941208CE01B80136
:101290000E94E908FFBEDF91CF911F910F91FF904F
:1012A00008952091430B3091440B215030403093EE
:1012B000440B2093430B0E94140908958F929F9230
:1012C000AF92BF92CF92DF92EF92FF920F931F9354
:1012D000DF93CF93CDB7DEB74C01009709F44CC034
:1012E0004115510509F448C0E114F10409F444C062
:1012F000A114B104C104D10409F43EC0FC01158657
:1013000062831286118614861386108A1786548388
:1013100043830583168327833087B501615070406E
:101320006E0D7F1D0E9415071FB7F8948EE39BE09A
:10133000B4010E941208882319F01FBF8CEC1DC055
:101340001FBF8091400B813079F48091430B9091C5
:10135000440B892B49F48091410B9091420B892BCE
:1013600019F080E00E941409C4010E94800CC4019D
:101370000E94870D80E001C089ECCF91DF911F9121
:101380000F91FF90EF90DF90CF90BF90AF909F9024
:101390008F9008958F92AF92BF92CF92DF92EF928B
:1013A000FF920F931F937C015A016B01822E1092C2
:1013B000420B1092410B10923F0B10923E0B109279
:1013C000400B85E49BE06EEF41E158E000E010E067
:1013D00020E030E00E945E091F910F91FF90EF9096
:1013E000DF90CF90BF90AF908F900895DF92EF92F3
:1013F000FF920F931F93CF93DF93009711F419EC93
:1014000032C07C0100E08AECD82E1FB7F894C701E7
:101410000E945608EC010097D9F0DE868EE39BE02F
:10142000BE010E941208882319F01FBF1CEC12C0D5
:101430008F859889009749F00E948E0B882319F0B8
:101440001FBF1DEC07C0188A1F861FBF01E0DDCF3C
:101450001FBF10E0013039F40E940208892B19F0F7
:1014600080E00E941409812FDF91CF911F910F918D
:10147000FF90EF90DF900895CF92DF92EF92FF926E
:101480000F931F93CF93DF937C01009711F419EC16
:1014900044C00E9402086C010FB7F894F7018281E2
:1014A00093818C159D0519F00FBF1FEC32C0F70119
:1014B000848181508483882351F513821282808134
:1014C0009181892B21F1C7010E945608EC018EE31E
:1014D0009BE0BE010E941208882319F00FBF1CEC8C
:1014E00018C01E86F701D383C2838F859889009721
:1014F00031F00E948E0B882311F01DEC03C0188A76
:101500001F8610E00FBF80E00E94140902C00FBFC9
:1015100010E0C701B6010E94F20C812FDF91CF913C
:101520001F910F91FF90EF90DF90CF9008951F9340
:10153000CF93DF93EC010097B1F01FB7F894E881E7
:10154000F98182E08687E881F981108A17868A818D
:101550009B81BF010E947408688179818EE39BE0C2
:101560000E9412081FBFDF91CF911F9108958F92A3
:101570009F92AF92BF92CF92DF92EF92FF920F9322
:101580001F93DF93CF93CDB7DEB72E970FB6F894A6
:10159000DEBF0FBECDBF7C014A015B01009711F495
:1015A00019EC75C00E9402086C010FB7F8940097FF
:1015B00019F40FBF18EC67C0F7018281938100977F
:1015C00009F44FC08C159D0509F44BC0B7FC46C00B
:1015D000C701B6010E941208882319F00FBF1CEC46
:1015E00052C081E0F601858781149104A104B10401
:1015F00011F1DA82C982FC82EB8287E99AE09E834C
:101600008D83CE01019698878F8389869A86AB86D3
:10161000BC86CE010596908B87870E94690B882334
:1016200069F0C701B6010E947408F6011586108A98
:1016300017861DEC04C0F601108A178610E00FBF54
:10164000112309F580E00E941409F6011685112383
:10165000D1F4F70184818F5F848315C00FBF13E03D
:1016600012C0F70184818F3F11F41BEC0BC08F5F18
:10167000F701848382819381892B19F4F701D38246
:10168000C28210E00FBFC701B6010E94FF0C812F7C
:101690002E960FB6F894DEBF0FBECDBFCF91DF916F
:1016A0001F910F91FF90EF90DF90CF90BF90AF9080
:1016B0009F908F900895FC01009711F489EC089594
:1016C000138212821482118210820E94150D80E012
:1016D0000895FC01009701F180819181892BE1F04F
:1016E00084819581A681B7810097A105B105A1F0FC
:1016F0002FB7F89480915A0B90915B0B009719F4D7
:101700001186108602C091878087F0935B0BE0936F
:101710005A0B2FBF80E0089589EC08951F93BC01F8
:10172000009711F489EC25C01FB7F89440915A0B2B
:1017300050915B0BDA01FA0118C0E617F70781F444
:1017400080859185E417F50729F490935B0B8093CE
:101750005A0B04C019969C938E93189780E008C08A
:10176000DF01808591859C01F901309731F78EEC7E
:101770001FBF1F9108956091560B7091570B809178
:10178000580B9091590B08956093560B7093570B1B
:101790008093580B9093590B08950F931F93CF93F9
:1017A000DF938091400B882309F447C08091560B4A
:1017B0009091570BA091580BB091590B0196A11D18
:1017C000B11D8093560B9093570BA093580BB09379
:1017D000590BC0915A0BD0915B0B8E012CC08C81A0
:1017E0009D81AE81BF810197A109B1098C839D8341
:1017F000AE83BF830097A105B10511F08E0118C01B
:1018000080915A0B90915B0B28853985C817D907B1
:1018100029F430935B0B20935A0B03C0F8013187F6
:101820002087E881F981309719F08A819B81199589
:101830000884D985C02D209791F6DF91CF911F9113
:101840000F910895DF92EF92FF920F931F93DF9312
:10185000CF93CDB7DEB72C970FB6F894DEBF0FBE8F
:10186000CDBF7B018C010E940208FC01E114F10450
:101870000105110511F489EC26C0009711F488ECDC
:1018800022C0DFB6F89481E08587FA83E98381E797
:101890009CE09C838B83CE0101969E838D83EF8297
:1018A000F88609871A87CE010396908B87870E9456
:1018B000690B882319F0DFBE8DEC05C0DFBE80E028
:1018C0000E94140980E02C960FB6F894DEBF0FBE7C
:1018D000CDBFCF91DF911F910F91FF90EF90DF90DF
:1018E00008951F93FC01009749F01FB7F894608199
:1018F00071818EE39BE00E9412081FBF1F91089523
:101900009C01A8EEB0E2E0E0F0E08D919C9111978F
:10191000892B39F4EE0FFF1FE851FF4D31832083EF
:10192000089531961296E431F10579F70895AF9252
:10193000BF92CF92DF92EF92FF920F931F93CF93BC
:10194000DF93B82EEB017A016901AFB6F89480916C
:101950005E0B90915F0B019668EC70E00E94FA0EAE
:101960008C0190935F0B80935E0B0E94BE072BE06F
:1019700030E0029FF001039FF00D129FF00D112443
:10198000E05AF44F608371838283938380915E0B6E
:1019900090915F0B829FF001839FF00D929FF00D5D
:1019A0001124E05AF44F8481882381F4B482D683D1
:1019B000C583F086E782D286C18680915C0B9091C8
:1019C0005D0B019690935D0B80935C0BAFBEDF9136
:1019D000CF911F910F91FF90EF90DF90CF90BF902C
:1019E000AF9008959C01FB0182818A3F39F087E026
:1019F000B901AF0120E030E00E94970C08959C01EE
:101A0000FB0182818A3F39F086E0B901AF0120E015
:101A100030E00E94970C0895BC0188E040E050E05F
:101A200020E030E00E94970C0895BC0185E040E082
:101A300050E020E030E00E94970C0895FC01828184
:101A40008A3F41F084E0BF0140E050E020E030E018
:101A50000E94970C0895FC0182818A3F41F083E047
:101A6000BF0140E050E020E030E00E94970C089574
:101A7000CF93DF93FC01EB0182819A818A3F39F099
:101A80009A3F81F5F0931121E093102106C09A3F0F
:101A900021F07093132160931221609110217091B5
:101AA000112140911221509113216417750789F07B
:101AB0006115710549F14115510531F181E020E0D1
:101AC00030E00E94970C80911221909113210E9486
:101AD0002B0D1092112110921021109213211092AF
:101AE000122112C010921121109210211092132174
:101AF0001092122181E0BF01AE0120E030E00E948F
:101B0000970CCE010E942B0DDF91CF910895FC011F
:101B100082818A3F41F082E0BF0140E050E020E056
:101B200030E00E94970C0895CF93DF93EC0103C03F
:101B300021960E94F00788818823D1F78AE00E94CD
:101B4000F007DF91CF910895AF92BF92CF92DF92CD
:101B5000EF92FF920F931F93DF93CF93CDB7DEB732
:101B600064970FB6F894DEBF0FBECDBF82E2E82EB9
:101B7000F12CEC0EFD1EF701C190D1907F015E01AA
:101B80000894A11CB11C9FC0853209F097C0F601D2
:101B90008181833641F487010E5F1F4FF7018081F9
:101BA0000E94F00764C08537E1F4F6018281843633
:101BB00009F062C087010E5F1F4FF701808191819C
:101BC000B5014AE050E00E94430F750105C008943A
:101BD000E11CF11C0E94F007F70180818823B9F70E
:101BE00067C08837B9F487010E5F1F4FF701808106
:101BF0009181B50140E150E00E94430F750105C09D
:101C00000894E11CF11C0E94F007F70180818823F1
:101C1000B9F72DC08037C9F487010C5F1F4FF7015A
:101C20006081718182819381A50120E130E00E9471
:101C3000640F750105C00894E11CF11C0E94F007B7
:101C4000F70180818823B9F712C0833799F487019F
:101C50000E5F1F4FF701E080F18005C00894E11C82
:101C6000F11C0E94F007F70180818823B9F782E018
:101C700090E020C0853739F5F60182818C3619F560
:101C800087010C5F1F4FF701608171818281938111
:101C9000A5012AE030E00E94980F750105C0089464
:101CA000E11CF11C0E94F007F70180818823B9F73D
:101CB00083E090E0C80ED91E780105C00894C11CCD
:101CC000D11C0E94F007F6018081882309F05CCFC7
:101CD00064960FB6F894DEBF0FBECDBFCF91DF91F3
:101CE0001F910F91FF90EF90DF90CF90BF90AF903A
:101CF00008952F923F924F925F926F927F928F92B0
:101D00009F92AF92BF92CF92DF92EF92FF920F938A
:101D10001F93CF93DF930BB60F920CB60F920DB7B4
:101D20001EB7C82FD92F08831983C62FD72F088134
:101D300019810DBF1EBF0F900CB60F900BB6DF912F
:101D4000CF911F910F91FF90EF90DF90CF90BF90B8
:101D5000AF909F908F907F906F905F904F903F904B
:101D60002F900895C82FD92F088119810DBF1EBF4C
:101D70000F900CB60F900BB6DF91CF911F910F9182
:101D8000FF90EF90DF90CF90BF90AF909F908F909B
:101D90007F906F905F904F903F902F901895629F2B
:101DA000D001739FF001829FE00DF11D649FE00D53
:101DB000F11D929FF00D839FF00D749FF00D659FB4
:101DC000F00D9927729FB00DE11DF91F639FB00DB3
:101DD000E11DF91FBD01CF0111240895991B79E080
:101DE00004C0991F961708F0961B881F7A95C9F7AB
:101DF0008095089597FB092E07260AD077FD04D019
:101E00002ED006D000201AF4709561957F4F08956A
:101E1000F6F7909581959F4F0895A1E21A2EAA1B7F
:101E2000BB1BFD010DC0AA1FBB1FEE1FFF1FA2178A
:101E3000B307E407F50720F0A21BB30BE40BF50B87
:101E4000661F771F881F991F1A9469F76095709510
:101E5000809590959B01AC01BD01CF010895AA1B0F
:101E6000BB1B51E107C0AA1FBB1FA617B70710F085
:101E7000A61BB70B881F991F5A95A9F780959095B7
:101E8000BC01CD010895FB019F01E8944230C4F0EC
:101E90004532B4F44A3029F497FB1EF490958195AD
:101EA0009F4F642F77270E942F0F805D8A330CF09D
:101EB000895D8193CB010097A1F716F45DE2519300
:101EC0001082C9010C94BD0FFA01CF93FF93EF93D9
:101ED000223044F1253234F5C22FE894CA3049F457
:101EE00097FB3EF490958095709561957F4F8F4F4D
:101EF0009F4F2C2F332744275527FF93EF930E94A2
:101F00000D0FEF91FF91605D6A330CF0695D619395
:101F1000B901CA01605070408040904051F716F4FA
:101F2000CDE2C19310828F919F91CF910C94BD0F00
:101F3000FA01CF93FF93EF932230CCF02532BCF41B
:101F4000C22F2C2F332744275527FF93EF930E944E
:101F50000D0FEF91FF91605D6A330CF0695D619345
:101F6000B901CA01605070408040904051F7108222
:101F70008F919F91CF910C94BD0FDC01FC01672FD5
:101F800071917723E1F7329704C07C916D93708350
:0E1F90006291AE17BF07C8F30895F894FFCF13
:101F9E000000000200000000D500000000004174A7
:101FAE006F6D436C6F636B2076312E300000000036
:101FBE00000000000000065F5F060000000007073B
:101FCE000007070000147F7F147F7F1400242E6B00
:101FDE006B3A120000466630180C666200307A4F7B
:101FEE005D377A48000407030000000000001C3E25
:101FFE0063410000000041633E1C000000082A3EC1
:10200E001C1C3E2A0808083E3E080800000080E01E
:10201E0060000000000808080808080000000060C2
:10202E0060000000006030180C060301003E7F7156
:10203E00594D7F3E0040427F7F4040000062735901
:10204E00496F660000226349497F360000181C164E
:10205E00537F7F5000276745457D3900003C7E4BFE
:10206E004979300000030371790F070000367F496C
:10207E00497F360000064F49693F1E00000000668A
:10208E0066000000000080E66600000000081C36B6
:10209E0063410000002424242424240000416336DC
:1020AE001C08000000020351590F0600003E7F413C
:1020BE005D5D1F1E007C7E13137E7C0000417F7FC2
:1020CE0049497F36001C3E634141632200417F7FB8
:1020DE0041633E1C00417F7F495D416300417F7F2C
:1020EE00491D0103001C3E6341517372007F7F083E
:1020FE00087F7F000000417F7F410000003070406C
:10210E00417F3F0100417F7F081C776300417F7F45
:10211E0041406070007F7F0E1C0E7F7F007F7F0628
:10212E000C187F7F001C3E6341633E1C00417F7F85
:10213E0049090F06001E3F21717F5E0000417F7F1F
:10214E0009197F6600266F4D597332000003417FD7
:10215E007F410300007F7F40407F7F00001F3F6074
:10216E00603F1F00007F7F3018307F7F0043673C49
:10217E00183C674300074F78784F0700004763719C
:10218E00594D677300007F7F414100000001030637
:10219E000C183060000041417F7F000000080C06E3
:1021AE0003060C0800808080808080808000000301
:1021BE000704000000207454543C784000417F3FD7
:1021CE004848783000387C44446C28000030784809
:1021DE00493F7F4000387C54545C180000487E7F95
:1021EE00490302000098BCA4A4F87C0400417F7F40
:1021FE0008047C780000447D7D4000000060E08093
:10220E0080FDFD0000417F7F10386C440000417F4F
:10221E007F400000007C7C18381C7C78007C7C049D
:10222E00047C780000387C44447C38000084FCF840
:10223E00A4243C1800183C24A4F8FC8400447C78A8
:10224E004C041C1800485C54547424000000043ED6
:10225E007F442400003C7C40403C7C40001C3C60A1
:10226E00603C1C00003C7C7038707C3C00446C3838
:10227E0010386C44009CBCA0A0FC7C00004C647424
:10228E005C4C64000008083E7741410000000000ED
:10229E0077770000004141773E08080000020301F5
:1022AE0003020301006E54202570202D7020257529
:1022BE00640A00702025756C204A50202570202D50
:1022CE00742025700A00702025756C204A41202547
:1022DE00700A00702025756C204A522025700A0065
:1022EE00702025756C204A432025700A006E4D2003
:1022FE0025700A00702025756C20414D2025702018
:10230E0025700A00702025756C20524D20257020F6
:04231E0025700A001C
:00000001FF
